{
  "contractName": "Counter",
  "abi": [
    {
      "inputs": [
        {
          "internalType": "uint256",
          "name": "x",
          "type": "uint256"
        }
      ],
      "stateMutability": "nonpayable",
      "type": "constructor"
    },
    {
      "inputs": [],
      "name": "counter",
      "outputs": [
        {
          "internalType": "uint256",
          "name": "",
          "type": "uint256"
        }
      ],
      "stateMutability": "view",
      "type": "function",
      "constant": true
    },
    {
      "inputs": [],
      "name": "count",
      "outputs": [],
      "stateMutability": "nonpayable",
      "type": "function"
    }
  ],
  "bytecode": "0x608060405234801561001057600080fd5b506040516102033803806102038339818101604052810190610032919061007a565b80600081905550506100a7565b600080fd5b6000819050919050565b61005781610044565b811461006257600080fd5b50565b6000815190506100748161004e565b92915050565b6000602082840312156100905761008f61003f565b5b600061009e84828501610065565b91505092915050565b61014d806100b66000396000f3fe608060405234801561001057600080fd5b50600436106100365760003560e01c806306661abd1461003b57806361bc221a14610045575b600080fd5b610043610063565b005b61004d61007a565b60405161005a9190610099565b60405180910390f35b600160005461007291906100e3565b600081905550565b60005481565b6000819050919050565b61009381610080565b82525050565b60006020820190506100ae600083018461008a565b92915050565b7f4e487b7100000000000000000000000000000000000000000000000000000000600052601160045260246000fd5b60006100ee82610080565b91506100f983610080565b9250828201905080821115610111576101106100b4565b5b9291505056fea26469706673582212201bec616984fd51c9c50f335fb2079f8e97d579c3bb52da7434c3fb42704ed04464736f6c63430008130033",
  "immutableReferences": {},
  "source": "// SPDX-License-Identifier: MIT\r\n\r\npragma solidity ^0.8.0;\r\n\r\ncontract Counter {\r\n    uint public counter;\r\n    constructor(uint x) {\r\n        counter = x;\r\n    }\r\n    function count() public {\r\n        counter = counter + 1;\r\n    }\r\n} \r\n\r\n",
  "sourcePath": "C:\\Users\\晓航\\Desktop\\block-china\\W1-2\\contracts\\Counter.sol",
  "compiler": {
    "name": "solc",
    "version": "0.8.19+commit.7dd6d404.Emscripten.clang"
  },
  "schemaVersion": "3.4.13",
  "updatedAt": "2023-03-17T01:19:20.051Z",
  "networkType": "ethereum",
  "devdoc": {
    "kind": "dev",
    "methods": {},
    "version": 1
  },
  "userdoc": {
    "kind": "user",
    "methods": {},
    "version": 1
  }
}